:1000EF000D0A53544331322F3135205365726965F0
:1000FF0073204D435520436865636B204F4B210D93
:10010F000A55617274312054657374204F4B210D61
:02011F000A00D4
:1001460053877F759850538EBF538EFE53890F4346
:100156008920758BFD758DFDC2ABD28ED2ACD2AF28
:010166002276
:1000B800E4F5081201467BFF7A0079EF1201217BF3
:1000C800007A007909AF081200737B007A00790979
:1000D8001201217FE87E03120003B2B07FE87E039D
:0700E800120003050880CFA0
:0300230002016770
:0D016700309802C298309904C299C200324B
:080180002000FDD2008F99223E
:100121008B0D8A0E890FAB0DAA0EA90F1200266046
:1001310013050FE50F7002050E14F9120026FF12C8
:05014100018080E222B4
:10007300EFC39400500B742D12003FEFF404FF8084
:100083000AEF75F06484243012003FEF75F0648446
:10009300AFF0EF75F00A842430900001120051EFA5
:1000A30075F00A84E5F024309000021200519000AC
:0500B30003E40200510E
:10000300E4FDFCC3ED9FEC9E5015E4FBFA0BBB0033
:0F001300010AEB64784A70F50DBD00010C80E422
:0100220022BB
:0300000002017486
:0C017400787FE4F6D8FD7581200200B809
:10002600BB010689828A83E0225002E722BBFE02D8
:09003600E32289828A83E493220B
:10003F00BB010689828A83F0225002F722BBFE01A0
:02004F00F3229A
:10005100F8BB010DE58229F582E5833AF583E8F0E5
:10006100225006E92582C8F622BBFE05E92582C891
:02007100F22279
:00000001FF
